{
  "contractName": "UniqueAsset",
  "abi": [
    {
      "inputs": [],
      "stateMutability": "nonpayable",
      "type": "constructor"
    },
    {
      "anonymous": false,
      "inputs": [
        {
          "indexed": true,
          "internalType": "address",
          "name": "owner",
          "type": "address"
        },
        {
          "indexed": true,
          "internalType": "address",
          "name": "approved",
          "type": "address"
        },
        {
          "indexed": true,
          "internalType": "uint256",
          "name": "tokenId",
          "type": "uint256"
        }
      ],
      "name": "Approval",
      "type": "event"
    },
    {
      "anonymous": false,
      "inputs": [
        {
          "indexed": true,
          "internalType": "address",
          "name": "owner",
          "type": "address"
        },
        {
          "indexed": true,
          "internalType": "address",
          "name": "operator",
          "type": "address"
        },
        {
          "indexed": false,
          "internalType": "bool",
          "name": "approved",
          "type": "bool"
        }
      ],
      "name": "ApprovalForAll",
      "type": "event"
    },
    {
      "anonymous": false,
      "inputs": [
        {
          "indexed": true,
          "internalType": "address",
          "name": "previousOwner",
          "type": "address"
        },
        {
          "indexed": true,
          "internalType": "address",
          "name": "newOwner",
          "type": "address"
        }
      ],
      "name": "OwnershipTransferred",
      "type": "event"
    },
    {
      "anonymous": false,
      "inputs": [
        {
          "indexed": true,
          "internalType": "address",
          "name": "from",
          "type": "address"
        },
        {
          "indexed": true,
          "internalType": "address",
          "name": "to",
          "type": "address"
        },
        {
          "indexed": true,
          "internalType": "uint256",
          "name": "tokenId",
          "type": "uint256"
        }
      ],
      "name": "Transfer",
      "type": "event"
    },
    {
      "inputs": [
        {
          "internalType": "address",
          "name": "to",
          "type": "address"
        },
        {
          "internalType": "uint256",
          "name": "tokenId",
          "type": "uint256"
        }
      ],
      "name": "approve",
      "outputs": [],
      "stateMutability": "nonpayable",
      "type": "function"
    },
    {
      "inputs": [
        {
          "internalType": "address",
          "name": "owner",
          "type": "address"
        }
      ],
      "name": "balanceOf",
      "outputs": [
        {
          "internalType": "uint256",
          "name": "",
          "type": "uint256"
        }
      ],
      "stateMutability": "view",
      "type": "function",
      "constant": true
    },
    {
      "inputs": [
        {
          "internalType": "uint256",
          "name": "tokenId",
          "type": "uint256"
        }
      ],
      "name": "getApproved",
      "outputs": [
        {
          "internalType": "address",
          "name": "",
          "type": "address"
        }
      ],
      "stateMutability": "view",
      "type": "function",
      "constant": true
    },
    {
      "inputs": [
        {
          "internalType": "address",
          "name": "owner",
          "type": "address"
        },
        {
          "internalType": "address",
          "name": "operator",
          "type": "address"
        }
      ],
      "name": "isApprovedForAll",
      "outputs": [
        {
          "internalType": "bool",
          "name": "",
          "type": "bool"
        }
      ],
      "stateMutability": "view",
      "type": "function",
      "constant": true
    },
    {
      "inputs": [],
      "name": "name",
      "outputs": [
        {
          "internalType": "string",
          "name": "",
          "type": "string"
        }
      ],
      "stateMutability": "view",
      "type": "function",
      "constant": true
    },
    {
      "inputs": [],
      "name": "owner",
      "outputs": [
        {
          "internalType": "address",
          "name": "",
          "type": "address"
        }
      ],
      "stateMutability": "view",
      "type": "function",
      "constant": true
    },
    {
      "inputs": [
        {
          "internalType": "uint256",
          "name": "tokenId",
          "type": "uint256"
        }
      ],
      "name": "ownerOf",
      "outputs": [
        {
          "internalType": "address",
          "name": "",
          "type": "address"
        }
      ],
      "stateMutability": "view",
      "type": "function",
      "constant": true
    },
    {
      "inputs": [],
      "name": "renounceOwnership",
      "outputs": [],
      "stateMutability": "nonpayable",
      "type": "function"
    },
    {
      "inputs": [
        {
          "internalType": "address",
          "name": "from",
          "type": "address"
        },
        {
          "internalType": "address",
          "name": "to",
          "type": "address"
        },
        {
          "internalType": "uint256",
          "name": "tokenId",
          "type": "uint256"
        }
      ],
      "name": "safeTransferFrom",
      "outputs": [],
      "stateMutability": "nonpayable",
      "type": "function"
    },
    {
      "inputs": [
        {
          "internalType": "address",
          "name": "from",
          "type": "address"
        },
        {
          "internalType": "address",
          "name": "to",
          "type": "address"
        },
        {
          "internalType": "uint256",
          "name": "tokenId",
          "type": "uint256"
        },
        {
          "internalType": "bytes",
          "name": "_data",
          "type": "bytes"
        }
      ],
      "name": "safeTransferFrom",
      "outputs": [],
      "stateMutability": "nonpayable",
      "type": "function"
    },
    {
      "inputs": [
        {
          "internalType": "address",
          "name": "operator",
          "type": "address"
        },
        {
          "internalType": "bool",
          "name": "approved",
          "type": "bool"
        }
      ],
      "name": "setApprovalForAll",
      "outputs": [],
      "stateMutability": "nonpayable",
      "type": "function"
    },
    {
      "inputs": [
        {
          "internalType": "bytes4",
          "name": "interfaceId",
          "type": "bytes4"
        }
      ],
      "name": "supportsInterface",
      "outputs": [
        {
          "internalType": "bool",
          "name": "",
          "type": "bool"
        }
      ],
      "stateMutability": "view",
      "type": "function",
      "constant": true
    },
    {
      "inputs": [],
      "name": "symbol",
      "outputs": [
        {
          "internalType": "string",
          "name": "",
          "type": "string"
        }
      ],
      "stateMutability": "view",
      "type": "function",
      "constant": true
    },
    {
      "inputs": [
        {
          "internalType": "uint256",
          "name": "tokenId",
          "type": "uint256"
        }
      ],
      "name": "tokenURI",
      "outputs": [
        {
          "internalType": "string",
          "name": "",
          "type": "string"
        }
      ],
      "stateMutability": "view",
      "type": "function",
      "constant": true
    },
    {
      "inputs": [
        {
          "internalType": "address",
          "name": "from",
          "type": "address"
        },
        {
          "internalType": "address",
          "name": "to",
          "type": "address"
        },
        {
          "internalType": "uint256",
          "name": "tokenId",
          "type": "uint256"
        }
      ],
      "name": "transferFrom",
      "outputs": [],
      "stateMutability": "nonpayable",
      "type": "function"
    },
    {
      "inputs": [
        {
          "internalType": "address",
          "name": "newOwner",
          "type": "address"
        }
      ],
      "name": "transferOwnership",
      "outputs": [],
      "stateMutability": "nonpayable",
      "type": "function"
    },
    {
      "inputs": [
        {
          "internalType": "string",
          "name": "baseURI_",
          "type": "string"
        }
      ],
      "name": "setBaseURI",
      "outputs": [],
      "stateMutability": "nonpayable",
      "type": "function"
    },
    {
      "inputs": [
        {
          "internalType": "address",
          "name": "recipient",
          "type": "address"
        },
        {
          "internalType": "string",
          "name": "hash",
          "type": "string"
        },
        {
          "internalType": "string",
          "name": "metadata",
          "type": "string"
        }
      ],
      "name": "awardItem",
      "outputs": [
        {
          "internalType": "uint256",
          "name": "",
          "type": "uint256"
        }
      ],
      "stateMutability": "nonpayable",
      "type": "function"
    }
  ],
  "bytecode": "0x60806040523480156200001157600080fd5b506040518060400160405280600b81526020017f556e6971756541737365740000000000000000000000000000000000000000008152506040518060400160405280600381526020017f554e410000000000000000000000000000000000000000000000000000000000815250816000908051906020019062000096929190620001a6565b508060019080519060200190620000af929190620001a6565b505050620000d2620000c6620000d860201b60201c565b620000e060201b60201c565b620002bb565b600033905090565b6000600660009054906101000a900473ffffffffffffffffffffffffffffffffffffffff16905081600660006101000a81548173ffffffffffffffffffffffffffffffffffffffff021916908373ffffffffffffffffffffffffffffffffffffffff1602179055508173ffffffffffffffffffffffffffffffffffffffff168173ffffffffffffffffffffffffffffffffffffffff167f8be0079c531659141344cd1fd0a4f28419497f9722a3daafe3b4186f6b6457e060405160405180910390a35050565b828054620001b49062000285565b90600052602060002090601f016020900481019282620001d8576000855562000224565b82601f10620001f357805160ff191683800117855562000224565b8280016001018555821562000224579182015b828111156200022357825182559160200191906001019062000206565b5b50905062000233919062000237565b5090565b5b808211156200025257600081600090555060010162000238565b5090565b7f4e487b7100000000000000000000000000000000000000000000000000000000600052602260045260246000fd5b600060028204905060018216806200029e57607f821691505b60208210811415620002b557620002b462000256565b5b50919050565b612f4680620002cb6000396000f3fe608060405234801561001057600080fd5b50600436106101165760003560e01c8063715018a6116100a2578063a22cb46511610071578063a22cb465146102df578063b88d4fde146102fb578063c87b56dd14610317578063e985e9c514610347578063f2fde38b1461037757610116565b8063715018a6146102695780638bfaf101146102735780638da5cb5b146102a357806395d89b41146102c157610116565b806323b872dd116100e957806323b872dd146101b557806342842e0e146101d157806355f804b3146101ed5780636352211e1461020957806370a082311461023957610116565b806301ffc9a71461011b57806306fdde031461014b578063081812fc14610169578063095ea7b314610199575b600080fd5b61013560048036038101906101309190611bad565b610393565b6040516101429190611bf5565b60405180910390f35b610153610475565b6040516101609190611ca9565b60405180910390f35b610183600480360381019061017e9190611d01565b610507565b6040516101909190611d6f565b60405180910390f35b6101b360048036038101906101ae9190611db6565b61058c565b005b6101cf60048036038101906101ca9190611df6565b6106a4565b005b6101eb60048036038101906101e69190611df6565b610704565b005b61020760048036038101906102029190611f7e565b610724565b005b610223600480360381019061021e9190611d01565b6107ba565b6040516102309190611d6f565b60405180910390f35b610253600480360381019061024e9190611fc7565b61086c565b6040516102609190612003565b60405180910390f35b610271610924565b005b61028d6004803603810190610288919061201e565b6109ac565b60405161029a9190612003565b60405180910390f35b6102ab610a59565b6040516102b89190611d6f565b60405180910390f35b6102c9610a83565b6040516102d69190611ca9565b60405180910390f35b6102f960048036038101906102f491906120d5565b610b15565b005b610315600480360381019061031091906121b6565b610b2b565b005b610331600480360381019061032c9190611d01565b610b8d565b60405161033e9190611ca9565b60405180910390f35b610361600480360381019061035c9190612239565b610c34565b60405161036e9190611bf5565b60405180910390f35b610391600480360381019061038c9190611fc7565b610cc8565b005b60007f80ac58cd000000000000000000000000000000000000000000000000000000007bffffffffffffffffffffffffffffffffffffffffffffffffffffffff1916827bffffffffffffffffffffffffffffffffffffffffffffffffffffffff1916148061045e57507f5b5e139f000000000000000000000000000000000000000000000000000000007bffffffffffffffffffffffffffffffffffffffffffffffffffffffff1916827bffffffffffffffffffffffffffffffffffffffffffffffffffffffff1916145b8061046e575061046d82610dc0565b5b9050919050565b606060008054610484906122a8565b80601f01602080910402602001604051908101604052809291908181526020018280546104b0906122a8565b80156104fd5780601f106104d2576101008083540402835291602001916104fd565b820191906000526020600020905b8154815290600101906020018083116104e057829003601f168201915b5050505050905090565b600061051282610e2a565b610551576040517f08c379a00000000000000000000000000000000000000000000000000000000081526004016105489061234c565b60405180910390fd5b6004600083815260200190815260200160002060009054906101000a900473ffffffffffffffffffffffffffffffffffffffff169050919050565b6000610597826107ba565b90508073ffffffffffffffffffffffffffffffffffffffff168373ffffffffffffffffffffffffffffffffffffffff161415610608576040517f08c379a00000000000000000000000000000000000000000000000000000000081526004016105ff906123de565b60405180910390fd5b8073ffffffffffffffffffffffffffffffffffffffff16610627610e96565b73ffffffffffffffffffffffffffffffffffffffff161480610656575061065581610650610e96565b610c34565b5b610695576040517f08c379a000000000000000000000000000000000000000000000000000000000815260040161068c90612470565b60405180910390fd5b61069f8383610e9e565b505050565b6106b56106af610e96565b82610f57565b6106f4576040517f08c379a00000000000000000000000000000000000000000000000000000000081526004016106eb90612502565b60405180910390fd5b6106ff838383611035565b505050565b61071f83838360405180602001604052806000815250610b2b565b505050565b61072c610e96565b73ffffffffffffffffffffffffffffffffffffffff1661074a610a59565b73ffffffffffffffffffffffffffffffffffffffff16146107a0576040517f08c379a00000000000000000000000000000000000000000000000000000000081526004016107979061256e565b60405180910390fd5b80600a90805190602001906107b6929190611a9e565b5050565b6000806002600084815260200190815260200160002060009054906101000a900473ffffffffffffffffffffffffffffffffffffffff169050600073ffffffffffffffffffffffffffffffffffffffff168173ffffffffffffffffffffffffffffffffffffffff161415610863576040517f08c379a000000000000000000000000000000000000000000000000000000000815260040161085a90612600565b60405180910390fd5b80915050919050565b60008073ffffffffffffffffffffffffffffffffffffffff168273ffffffffffffffffffffffffffffffffffffffff1614156108dd576040517f08c379a00000000000000000000000000000000000000000000000000000000081526004016108d490612692565b60405180910390fd5b600360008373ffffffffffffffffffffffffffffffffffffffff1673ffffffffffffffffffffffffffffffffffffffff168152602001908152602001600020549050919050565b61092c610e96565b73ffffffffffffffffffffffffffffffffffffffff1661094a610a59565b73ffffffffffffffffffffffffffffffffffffffff16146109a0576040517f08c379a00000000000000000000000000000000000000000000000000000000081526004016109979061256e565b60405180910390fd5b6109aa6000611291565b565b600060016008846040516109c091906126ee565b908152602001604051809103902060009054906101000a900460ff1660ff1614156109ea57600080fd5b60016008846040516109fc91906126ee565b908152602001604051809103902060006101000a81548160ff021916908360ff160217905550610a2c6007611357565b6000610a38600761136d565b9050610a44858261137b565b610a4e8184611549565b809150509392505050565b6000600660009054906101000a900473ffffffffffffffffffffffffffffffffffffffff16905090565b606060018054610a92906122a8565b80601f0160208091040260200160405190810160405280929190818152602001828054610abe906122a8565b8015610b0b5780601f10610ae057610100808354040283529160200191610b0b565b820191906000526020600020905b815481529060010190602001808311610aee57829003601f168201915b5050505050905090565b610b27610b20610e96565b83836115bd565b5050565b610b3c610b36610e96565b83610f57565b610b7b576040517f08c379a0000000000000000000000000000000000000000000000000000000008152600401610b7290612502565b60405180910390fd5b610b878484848461172a565b50505050565b6060610b9882610e2a565b610bd7576040517f08c379a0000000000000000000000000000000000000000000000000000000008152600401610bce90612777565b60405180910390fd5b6000610be1611786565b90506000815111610c015760405180602001604052806000815250610c2c565b80610c0b8461179d565b604051602001610c1c929190612797565b6040516020818303038152906040525b915050919050565b6000600560008473ffffffffffffffffffffffffffffffffffffffff1673ffffffffffffffffffffffffffffffffffffffff16815260200190815260200160002060008373ffffffffffffffffffffffffffffffffffffffff1673ffffffffffffffffffffffffffffffffffffffff16815260200190815260200160002060009054906101000a900460ff16905092915050565b610cd0610e96565b73ffffffffffffffffffffffffffffffffffffffff16610cee610a59565b73ffffffffffffffffffffffffffffffffffffffff1614610d44576040517f08c379a0000000000000000000000000000000000000000000000000000000008152600401610d3b9061256e565b60405180910390fd5b600073ffffffffffffffffffffffffffffffffffffffff168173ffffffffffffffffffffffffffffffffffffffff161415610db4576040517f08c379a0000000000000000000000000000000000000000000000000000000008152600401610dab9061282d565b60405180910390fd5b610dbd81611291565b50565b60007f01ffc9a7000000000000000000000000000000000000000000000000000000007bffffffffffffffffffffffffffffffffffffffffffffffffffffffff1916827bffffffffffffffffffffffffffffffffffffffffffffffffffffffff1916149050919050565b60008073ffffffffffffffffffffffffffffffffffffffff166002600084815260200190815260200160002060009054906101000a900473ffffffffffffffffffffffffffffffffffffffff1673ffffffffffffffffffffffffffffffffffffffff1614159050919050565b600033905090565b816004600083815260200190815260200160002060006101000a81548173ffffffffffffffffffffffffffffffffffffffff021916908373ffffffffffffffffffffffffffffffffffffffff160217905550808273ffffffffffffffffffffffffffffffffffffffff16610f11836107ba565b73ffffffffffffffffffffffffffffffffffffffff167f8c5be1e5ebec7d5bd14f71427d1e84f3dd0314c0f7b2291e5b200ac8c7c3b92560405160405180910390a45050565b6000610f6282610e2a565b610fa1576040517f08c379a0000000000000000000000000000000000000000000000000000000008152600401610f98906128bf565b60405180910390fd5b6000610fac836107ba565b90508073ffffffffffffffffffffffffffffffffffffffff168473ffffffffffffffffffffffffffffffffffffffff16148061101b57508373ffffffffffffffffffffffffffffffffffffffff1661100384610507565b73ffffffffffffffffffffffffffffffffffffffff16145b8061102c575061102b8185610c34565b5b91505092915050565b8273ffffffffffffffffffffffffffffffffffffffff16611055826107ba565b73ffffffffffffffffffffffffffffffffffffffff16146110ab576040517f08c379a00000000000000000000000000000000000000000000000000000000081526004016110a290612951565b60405180910390fd5b600073ffffffffffffffffffffffffffffffffffffffff168273ffffffffffffffffffffffffffffffffffffffff16141561111b576040517f08c379a0000000000000000000000000000000000000000000000000000000008152600401611112906129e3565b60405180910390fd5b6111268383836118fe565b611131600082610e9e565b6001600360008573ffffffffffffffffffffffffffffffffffffffff1673ffffffffffffffffffffffffffffffffffffffff16815260200190815260200160002060008282546111819190612a32565b925050819055506001600360008473ffffffffffffffffffffffffffffffffffffffff1673ffffffffffffffffffffffffffffffffffffffff16815260200190815260200160002060008282546111d89190612a66565b92505081905550816002600083815260200190815260200160002060006101000a81548173ffffffffffffffffffffffffffffffffffffffff021916908373ffffffffffffffffffffffffffffffffffffffff160217905550808273ffffffffffffffffffffffffffffffffffffffff168473ffffffffffffffffffffffffffffffffffffffff167fddf252ad1be2c89b69c2b068fc378daa952ba7f163c4a11628f55a4df523b3ef60405160405180910390a4505050565b6000600660009054906101000a900473ffffffffffffffffffffffffffffffffffffffff16905081600660006101000a81548173ffffffffffffffffffffffffffffffffffffffff021916908373ffffffffffffffffffffffffffffffffffffffff1602179055508173ffffffffffffffffffffffffffffffffffffffff168173ffffffffffffffffffffffffffffffffffffffff167f8be0079c531659141344cd1fd0a4f28419497f9722a3daafe3b4186f6b6457e060405160405180910390a35050565b6001816000016000828254019250508190555050565b600081600001549050919050565b600073ffffffffffffffffffffffffffffffffffffffff168273ffffffffffffffffffffffffffffffffffffffff1614156113eb576040517f08c379a00000000000000000000000000000000000000000000000000000000081526004016113e290612b08565b60405180910390fd5b6113f481610e2a565b15611434576040517f08c379a000000000000000000000000000000000000000000000000000000000815260040161142b90612b74565b60405180910390fd5b611440600083836118fe565b6001600360008473ffffffffffffffffffffffffffffffffffffffff1673ffffffffffffffffffffffffffffffffffffffff16815260200190815260200160002060008282546114909190612a66565b92505081905550816002600083815260200190815260200160002060006101000a81548173ffffffffffffffffffffffffffffffffffffffff021916908373ffffffffffffffffffffffffffffffffffffffff160217905550808273ffffffffffffffffffffffffffffffffffffffff16600073ffffffffffffffffffffffffffffffffffffffff167fddf252ad1be2c89b69c2b068fc378daa952ba7f163c4a11628f55a4df523b3ef60405160405180910390a45050565b61155282610e2a565b611591576040517f08c379a000000000000000000000000000000000000000000000000000000000815260040161158890612c06565b60405180910390fd5b806009600084815260200190815260200160002090805190602001906115b8929190611a9e565b505050565b8173ffffffffffffffffffffffffffffffffffffffff168373ffffffffffffffffffffffffffffffffffffffff16141561162c576040517f08c379a000000000000000000000000000000000000000000000000000000000815260040161162390612c72565b60405180910390fd5b80600560008573ffffffffffffffffffffffffffffffffffffffff1673ffffffffffffffffffffffffffffffffffffffff16815260200190815260200160002060008473ffffffffffffffffffffffffffffffffffffffff1673ffffffffffffffffffffffffffffffffffffffff16815260200190815260200160002060006101000a81548160ff0219169083151502179055508173ffffffffffffffffffffffffffffffffffffffff168373ffffffffffffffffffffffffffffffffffffffff167f17307eab39ab6107e8899845ad3d59bd9653f200f220920489ca2b5937696c318360405161171d9190611bf5565b60405180910390a3505050565b611735848484611035565b61174184848484611903565b611780576040517f08c379a000000000000000000000000000000000000000000000000000000000815260040161177790612d04565b60405180910390fd5b50505050565b606060405180602001604052806000815250905090565b606060008214156117e5576040518060400160405280600181526020017f300000000000000000000000000000000000000000000000000000000000000081525090506118f9565b600082905060005b6000821461181757808061180090612d24565b915050600a826118109190612d9c565b91506117ed565b60008167ffffffffffffffff81111561183357611832611e53565b5b6040519080825280601f01601f1916602001820160405280156118655781602001600182028036833780820191505090505b5090505b600085146118f25760018261187e9190612a32565b9150600a8561188d9190612dcd565b60306118999190612a66565b60f81b8183815181106118af576118ae612dfe565b5b60200101907effffffffffffffffffffffffffffffffffffffffffffffffffffffffffffff1916908160001a905350600a856118eb9190612d9c565b9450611869565b8093505050505b919050565b505050565b60006119248473ffffffffffffffffffffffffffffffffffffffff16611a8b565b15611a7e578373ffffffffffffffffffffffffffffffffffffffff1663150b7a0261194d610e96565b8786866040518563ffffffff1660e01b815260040161196f9493929190612e82565b6020604051808303816000875af19250505080156119ab57506040513d601f19601f820116820180604052508101906119a89190612ee3565b60015b611a2e573d80600081146119db576040519150601f19603f3d011682016040523d82523d6000602084013e6119e0565b606091505b50600081511415611a26576040517f08c379a0000000000000000000000000000000000000000000000000000000008152600401611a1d90612d04565b60405180910390fd5b805181602001fd5b63150b7a0260e01b7bffffffffffffffffffffffffffffffffffffffffffffffffffffffff1916817bffffffffffffffffffffffffffffffffffffffffffffffffffffffff191614915050611a83565b600190505b949350505050565b600080823b905060008111915050919050565b828054611aaa906122a8565b90600052602060002090601f016020900481019282611acc5760008555611b13565b82601f10611ae557805160ff1916838001178555611b13565b82800160010185558215611b13579182015b82811115611b12578251825591602001919060010190611af7565b5b509050611b209190611b24565b5090565b5b80821115611b3d576000816000905550600101611b25565b5090565b6000604051905090565b600080fd5b600080fd5b60007fffffffff0000000000000000000000000000000000000000000000000000000082169050919050565b611b8a81611b55565b8114611b9557600080fd5b50565b600081359050611ba781611b81565b92915050565b600060208284031215611bc357611bc2611b4b565b5b6000611bd184828501611b98565b91505092915050565b60008115159050919050565b611bef81611bda565b82525050565b6000602082019050611c0a6000830184611be6565b92915050565b600081519050919050565b600082825260208201905092915050565b60005b83811015611c4a578082015181840152602081019050611c2f565b83811115611c59576000848401525b50505050565b6000601f19601f8301169050919050565b6000611c7b82611c10565b611c858185611c1b565b9350611c95818560208601611c2c565b611c9e81611c5f565b840191505092915050565b60006020820190508181036000830152611cc38184611c70565b905092915050565b6000819050919050565b611cde81611ccb565b8114611ce957600080fd5b50565b600081359050611cfb81611cd5565b92915050565b600060208284031215611d1757611d16611b4b565b5b6000611d2584828501611cec565b91505092915050565b600073ffffffffffffffffffffffffffffffffffffffff82169050919050565b6000611d5982611d2e565b9050919050565b611d6981611d4e565b82525050565b6000602082019050611d846000830184611d60565b92915050565b611d9381611d4e565b8114611d9e57600080fd5b50565b600081359050611db081611d8a565b92915050565b60008060408385031215611dcd57611dcc611b4b565b5b6000611ddb85828601611da1565b9250506020611dec85828601611cec565b9150509250929050565b600080600060608486031215611e0f57611e0e611b4b565b5b6000611e1d86828701611da1565b9350506020611e2e86828701611da1565b9250506040611e3f86828701611cec565b9150509250925092565b600080fd5b600080fd5b7f4e487b7100000000000000000000000000000000000000000000000000000000600052604160045260246000fd5b611e8b82611c5f565b810181811067ffffffffffffffff82111715611eaa57611ea9611e53565b5b80604052505050565b6000611ebd611b41565b9050611ec98282611e82565b919050565b600067ffffffffffffffff821115611ee957611ee8611e53565b5b611ef282611c5f565b9050602081019050919050565b82818337600083830152505050565b6000611f21611f1c84611ece565b611eb3565b905082815260208101848484011115611f3d57611f3c611e4e565b5b611f48848285611eff565b509392505050565b600082601f830112611f6557611f64611e49565b5b8135611f75848260208601611f0e565b91505092915050565b600060208284031215611f9457611f93611b4b565b5b600082013567ffffffffffffffff811115611fb257611fb1611b50565b5b611fbe84828501611f50565b91505092915050565b600060208284031215611fdd57611fdc611b4b565b5b6000611feb84828501611da1565b91505092915050565b611ffd81611ccb565b82525050565b60006020820190506120186000830184611ff4565b92915050565b60008060006060848603121561203757612036611b4b565b5b600061204586828701611da1565b935050602084013567ffffffffffffffff81111561206657612065611b50565b5b61207286828701611f50565b925050604084013567ffffffffffffffff81111561209357612092611b50565b5b61209f86828701611f50565b9150509250925092565b6120b281611bda565b81146120bd57600080fd5b50565b6000813590506120cf816120a9565b92915050565b600080604083850312156120ec576120eb611b4b565b5b60006120fa85828601611da1565b925050602061210b858286016120c0565b9150509250929050565b600067ffffffffffffffff8211156121305761212f611e53565b5b61213982611c5f565b9050602081019050919050565b600061215961215484612115565b611eb3565b90508281526020810184848401111561217557612174611e4e565b5b612180848285611eff565b509392505050565b600082601f83011261219d5761219c611e49565b5b81356121ad848260208601612146565b91505092915050565b600080600080608085870312156121d0576121cf611b4b565b5b60006121de87828801611da1565b94505060206121ef87828801611da1565b935050604061220087828801611cec565b925050606085013567ffffffffffffffff81111561222157612220611b50565b5b61222d87828801612188565b91505092959194509250565b600080604083850312156122505761224f611b4b565b5b600061225e85828601611da1565b925050602061226f85828601611da1565b9150509250929050565b7f4e487b7100000000000000000000000000000000000000000000000000000000600052602260045260246000fd5b600060028204905060018216806122c057607f821691505b602082108114156122d4576122d3612279565b5b50919050565b7f4552433732313a20617070726f76656420717565727920666f72206e6f6e657860008201527f697374656e7420746f6b656e0000000000000000000000000000000000000000602082015250565b6000612336602c83611c1b565b9150612341826122da565b604082019050919050565b6000602082019050818103600083015261236581612329565b9050919050565b7f4552433732313a20617070726f76616c20746f2063757272656e74206f776e6560008201527f7200000000000000000000000000000000000000000000000000000000000000602082015250565b60006123c8602183611c1b565b91506123d38261236c565b604082019050919050565b600060208201905081810360008301526123f7816123bb565b9050919050565b7f4552433732313a20617070726f76652063616c6c6572206973206e6f74206f7760008201527f6e6572206e6f7220617070726f76656420666f7220616c6c0000000000000000602082015250565b600061245a603883611c1b565b9150612465826123fe565b604082019050919050565b600060208201905081810360008301526124898161244d565b9050919050565b7f4552433732313a207472616e736665722063616c6c6572206973206e6f74206f60008201527f776e6572206e6f7220617070726f766564000000000000000000000000000000602082015250565b60006124ec603183611c1b565b91506124f782612490565b604082019050919050565b6000602082019050818103600083015261251b816124df565b9050919050565b7f4f776e61626c653a2063616c6c6572206973206e6f7420746865206f776e6572600082015250565b6000612558602083611c1b565b915061256382612522565b602082019050919050565b600060208201905081810360008301526125878161254b565b9050919050565b7f4552433732313a206f776e657220717565727920666f72206e6f6e657869737460008201527f656e7420746f6b656e0000000000000000000000000000000000000000000000602082015250565b60006125ea602983611c1b565b91506125f58261258e565b604082019050919050565b60006020820190508181036000830152612619816125dd565b9050919050565b7f4552433732313a2062616c616e636520717565727920666f7220746865207a6560008201527f726f206164647265737300000000000000000000000000000000000000000000602082015250565b600061267c602a83611c1b565b915061268782612620565b604082019050919050565b600060208201905081810360008301526126ab8161266f565b9050919050565b600081905092915050565b60006126c882611c10565b6126d281856126b2565b93506126e2818560208601611c2c565b80840191505092915050565b60006126fa82846126bd565b915081905092915050565b7f4552433732314d657461646174613a2055524920717565727920666f72206e6f60008201527f6e6578697374656e7420746f6b656e0000000000000000000000000000000000602082015250565b6000612761602f83611c1b565b915061276c82612705565b604082019050919050565b6000602082019050818103600083015261279081612754565b9050919050565b60006127a382856126bd565b91506127af82846126bd565b91508190509392505050565b7f4f776e61626c653a206e6577206f776e657220697320746865207a65726f206160008201527f6464726573730000000000000000000000000000000000000000000000000000602082015250565b6000612817602683611c1b565b9150612822826127bb565b604082019050919050565b600060208201905081810360008301526128468161280a565b9050919050565b7f4552433732313a206f70657261746f7220717565727920666f72206e6f6e657860008201527f697374656e7420746f6b656e0000000000000000000000000000000000000000602082015250565b60006128a9602c83611c1b565b91506128b48261284d565b604082019050919050565b600060208201905081810360008301526128d88161289c565b9050919050565b7f4552433732313a207472616e73666572206f6620746f6b656e2074686174206960008201527f73206e6f74206f776e0000000000000000000000000000000000000000000000602082015250565b600061293b602983611c1b565b9150612946826128df565b604082019050919050565b6000602082019050818103600083015261296a8161292e565b9050919050565b7f4552433732313a207472616e7366657220746f20746865207a65726f2061646460008201527f7265737300000000000000000000000000000000000000000000000000000000602082015250565b60006129cd602483611c1b565b91506129d882612971565b604082019050919050565b600060208201905081810360008301526129fc816129c0565b9050919050565b7f4e487b7100000000000000000000000000000000000000000000000000000000600052601160045260246000fd5b6000612a3d82611ccb565b9150612a4883611ccb565b925082821015612a5b57612a5a612a03565b5b828203905092915050565b6000612a7182611ccb565b9150612a7c83611ccb565b9250827fffffffffffffffffffffffffffffffffffffffffffffffffffffffffffffffff03821115612ab157612ab0612a03565b5b828201905092915050565b7f4552433732313a206d696e7420746f20746865207a65726f2061646472657373600082015250565b6000612af2602083611c1b565b9150612afd82612abc565b602082019050919050565b60006020820190508181036000830152612b2181612ae5565b9050919050565b7f4552433732313a20746f6b656e20616c7265616479206d696e74656400000000600082015250565b6000612b5e601c83611c1b565b9150612b6982612b28565b602082019050919050565b60006020820190508181036000830152612b8d81612b51565b9050919050565b7f4552433732314d657461646174613a2055524920736574206f66206e6f6e657860008201527f697374656e7420746f6b656e0000000000000000000000000000000000000000602082015250565b6000612bf0602c83611c1b565b9150612bfb82612b94565b604082019050919050565b60006020820190508181036000830152612c1f81612be3565b9050919050565b7f4552433732313a20617070726f766520746f2063616c6c657200000000000000600082015250565b6000612c5c601983611c1b565b9150612c6782612c26565b602082019050919050565b60006020820190508181036000830152612c8b81612c4f565b9050919050565b7f4552433732313a207472616e7366657220746f206e6f6e20455243373231526560008201527f63656976657220696d706c656d656e7465720000000000000000000000000000602082015250565b6000612cee603283611c1b565b9150612cf982612c92565b604082019050919050565b60006020820190508181036000830152612d1d81612ce1565b9050919050565b6000612d2f82611ccb565b91507fffffffffffffffffffffffffffffffffffffffffffffffffffffffffffffffff821415612d6257612d61612a03565b5b600182019050919050565b7f4e487b7100000000000000000000000000000000000000000000000000000000600052601260045260246000fd5b6000612da782611ccb565b9150612db283611ccb565b925082612dc257612dc1612d6d565b5b828204905092915050565b6000612dd882611ccb565b9150612de383611ccb565b925082612df357612df2612d6d565b5b828206905092915050565b7f4e487b7100000000000000000000000000000000000000000000000000000000600052603260045260246000fd5b600081519050919050565b600082825260208201905092915050565b6000612e5482612e2d565b612e5e8185612e38565b9350612e6e818560208601611c2c565b612e7781611c5f565b840191505092915050565b6000608082019050612e976000830187611d60565b612ea46020830186611d60565b612eb16040830185611ff4565b8181036060830152612ec38184612e49565b905095945050505050565b600081519050612edd81611b81565b92915050565b600060208284031215612ef957612ef8611b4b565b5b6000612f0784828501612ece565b9150509291505056fea2646970667358221220d6145be787f62623ac1fa0729f5adbd56984bed70a702741a879b57ee15a8c2b64736f6c634300080a0033",
  "immutableReferences": {},
  "source": "// SPDX-License-Identifier: MIT\npragma solidity >=0.4.22 <0.9.0;\n\nimport \"@openzeppelin/contracts/token/ERC721/ERC721.sol\";\nimport \"@openzeppelin/contracts/utils/Counters.sol\";\nimport '@openzeppelin/contracts/access/Ownable.sol';\n\ncontract UniqueAsset is ERC721, Ownable {\n    using Counters for Counters.Counter;\n    using Strings for uint256;\n    \n    Counters.Counter private _tokenIds; \n    mapping(string => uint8) hashes; // IPFS hashes associated with tokens \n    \n    mapping(uint256 => string) private _tokenURIs;\n\n    string private _baseURIextended;\n\n    constructor() public ERC721(\"UniqueAsset\", \"UNA\"){}\n\n    function setBaseURI(string memory baseURI_) external onlyOwner() {\n        _baseURIextended = baseURI_;\n    }\n\n    function _setTokenURI(uint256 tokenId, string memory _tokenURI) internal virtual {\n        require(_exists(tokenId), \"ERC721Metadata: URI set of nonexistent token\");\n        _tokenURIs[tokenId] = _tokenURI;\n    }\n\n    function awardItem(address recipient, string memory hash, string memory metadata) public returns (uint256) {\n        // recipient : person's wallet address who will receieve the NFT\n        // metadata : a link to the JSON metadata for the asset (asset name, a link to an image etc..)\n\n        require(hashes[hash] != 1); // if it's 1, it's already used \n        hashes[hash] = 1;\n        _tokenIds.increment();\n\n        uint256 newItemId = _tokenIds.current();\n        _mint(recipient, newItemId);\n        \n        _setTokenURI(newItemId, metadata);\n\n        return newItemId;\n\n    }\n\n\n}",
  "sourcePath": "/Users/jdkim/Desktop/Project/blockchain/contracts/UniqueAsset.sol",
  "compiler": {
    "name": "solc",
    "version": "0.8.10+commit.fc410830.Emscripten.clang"
  },
  "schemaVersion": "3.4.3",
  "updatedAt": "2021-12-23T18:30:28.685Z",
  "networkType": "ethereum",
  "devdoc": {
    "kind": "dev",
    "methods": {
      "approve(address,uint256)": {
        "details": "See {IERC721-approve}."
      },
      "balanceOf(address)": {
        "details": "See {IERC721-balanceOf}."
      },
      "getApproved(uint256)": {
        "details": "See {IERC721-getApproved}."
      },
      "isApprovedForAll(address,address)": {
        "details": "See {IERC721-isApprovedForAll}."
      },
      "name()": {
        "details": "See {IERC721Metadata-name}."
      },
      "owner()": {
        "details": "Returns the address of the current owner."
      },
      "ownerOf(uint256)": {
        "details": "See {IERC721-ownerOf}."
      },
      "renounceOwnership()": {
        "details": "Leaves the contract without owner. It will not be possible to call `onlyOwner` functions anymore. Can only be called by the current owner. NOTE: Renouncing ownership will leave the contract without an owner, thereby removing any functionality that is only available to the owner."
      },
      "safeTransferFrom(address,address,uint256)": {
        "details": "See {IERC721-safeTransferFrom}."
      },
      "safeTransferFrom(address,address,uint256,bytes)": {
        "details": "See {IERC721-safeTransferFrom}."
      },
      "setApprovalForAll(address,bool)": {
        "details": "See {IERC721-setApprovalForAll}."
      },
      "supportsInterface(bytes4)": {
        "details": "See {IERC165-supportsInterface}."
      },
      "symbol()": {
        "details": "See {IERC721Metadata-symbol}."
      },
      "tokenURI(uint256)": {
        "details": "See {IERC721Metadata-tokenURI}."
      },
      "transferFrom(address,address,uint256)": {
        "details": "See {IERC721-transferFrom}."
      },
      "transferOwnership(address)": {
        "details": "Transfers ownership of the contract to a new account (`newOwner`). Can only be called by the current owner."
      }
    },
    "version": 1
  },
  "userdoc": {
    "kind": "user",
    "methods": {},
    "version": 1
  }
}